{
  "address": "0x5FbDB2315678afecb367f032d93F642f64180aa3",
  "abi": [
    {
      "anonymous": false,
      "inputs": [
        {
          "indexed": true,
          "internalType": "address",
          "name": "from",
          "type": "address"
        },
        {
          "indexed": false,
          "internalType": "string",
          "name": "method",
          "type": "string"
        }
      ],
      "name": "transact",
      "type": "event"
    },
    {
      "inputs": [
        {
          "internalType": "uint256",
          "name": "_certNo",
          "type": "uint256"
        },
        {
          "internalType": "bytes32",
          "name": "_name",
          "type": "bytes32"
        },
        {
          "internalType": "bytes32",
          "name": "_fatherNm",
          "type": "bytes32"
        },
        {
          "internalType": "bytes32",
          "name": "_rollNo",
          "type": "bytes32"
        },
        {
          "internalType": "bytes32",
          "name": "_schoolCode",
          "type": "bytes32"
        },
        {
          "internalType": "bytes32",
          "name": "_percentage",
          "type": "bytes32"
        }
      ],
      "name": "AddCertificate",
      "outputs": [],
      "stateMutability": "nonpayable",
      "type": "function"
    },
    {
      "inputs": [
        {
          "internalType": "uint256",
          "name": "_certNo",
          "type": "uint256"
        }
      ],
      "name": "DeleteCertificate",
      "outputs": [],
      "stateMutability": "nonpayable",
      "type": "function"
    },
    {
      "inputs": [
        {
          "internalType": "uint256",
          "name": "_certNo",
          "type": "uint256"
        },
        {
          "internalType": "bytes32",
          "name": "_name",
          "type": "bytes32"
        },
        {
          "internalType": "bytes32",
          "name": "_fatherNm",
          "type": "bytes32"
        },
        {
          "internalType": "bytes32",
          "name": "_rollNo",
          "type": "bytes32"
        },
        {
          "internalType": "bytes32",
          "name": "_schoolCode",
          "type": "bytes32"
        },
        {
          "internalType": "bytes32",
          "name": "_percentage",
          "type": "bytes32"
        }
      ],
      "name": "UpdateCertificate",
      "outputs": [],
      "stateMutability": "nonpayable",
      "type": "function"
    },
    {
      "inputs": [
        {
          "internalType": "uint256",
          "name": "_certNo",
          "type": "uint256"
        }
      ],
      "name": "get_details",
      "outputs": [
        {
          "internalType": "bytes32[5]",
          "name": "",
          "type": "bytes32[5]"
        }
      ],
      "stateMutability": "view",
      "type": "function"
    },
    {
      "inputs": [
        {
          "internalType": "uint256",
          "name": "_certNo",
          "type": "uint256"
        }
      ],
      "name": "get_timestamp",
      "outputs": [
        {
          "internalType": "uint256",
          "name": "",
          "type": "uint256"
        }
      ],
      "stateMutability": "view",
      "type": "function"
    },
    {
      "inputs": [
        {
          "internalType": "uint256",
          "name": "_certNo",
          "type": "uint256"
        }
      ],
      "name": "isCertificateExist",
      "outputs": [
        {
          "internalType": "bool",
          "name": "",
          "type": "bool"
        }
      ],
      "stateMutability": "view",
      "type": "function"
    },
    {
      "inputs": [
        {
          "internalType": "uint256",
          "name": "_certNo",
          "type": "uint256"
        },
        {
          "internalType": "bytes32",
          "name": "_name",
          "type": "bytes32"
        },
        {
          "internalType": "bytes32",
          "name": "_fatherNm",
          "type": "bytes32"
        },
        {
          "internalType": "bytes32",
          "name": "_rollNo",
          "type": "bytes32"
        },
        {
          "internalType": "bytes32",
          "name": "_schoolCode",
          "type": "bytes32"
        },
        {
          "internalType": "bytes32",
          "name": "_percentage",
          "type": "bytes32"
        }
      ],
      "name": "verify",
      "outputs": [
        {
          "internalType": "bool",
          "name": "",
          "type": "bool"
        }
      ],
      "stateMutability": "view",
      "type": "function"
    }
  ],
  "transactionHash": "0x7bde7d6469a382115d9b626a4f3efbc564287610ea181abcad6915c6f87de296",
  "args": [],
  "numDeployments": 1,
  "solcInputHash": "2b5af21e7620760746d568a2fce6b0e8",
  "bytecode": "0x608060405234801561001057600080fd5b50610c15806100206000396000f3fe608060405234801561001057600080fd5b506004361061007d5760003560e01c80633eeda2431161005b5780633eeda243146100ea578063abc09d801461011a578063c931f6b014610136578063ed82f83b146101665761007d565b80630d3be2241461008257806311ad735a146100b257806328db1910146100ce575b600080fd5b61009c6004803603810190610097919061076d565b610196565b6040516100a991906107b5565b60405180910390f35b6100cc60048036038101906100c79190610806565b6101dc565b005b6100e860048036038101906100e39190610806565b61031d565b005b61010460048036038101906100ff9190610806565b610463565b60405161011191906107b5565b60405180910390f35b610134600480360381019061012f919061076d565b61056f565b005b610150600480360381019061014b919061076d565b61063c565b60405161015d91906108a2565b60405180910390f35b610180600480360381019061017b919061076d565b610659565b60405161018d9190610968565b60405180910390f35b60008060001b6000808481526020019081526020016000206000600581106101c1576101c0610983565b5b015414156101d257600090506101d7565b600190505b919050565b8460008088815260200190815260200160002060006005811061020257610201610983565b5b01819055508360008088815260200190815260200160002060016005811061022d5761022c610983565b5b5050508260008088815260200190815260200160002060026005811061025657610255610983565b5b5050508160008088815260200190815260200160002060036005811061027f5761027e610983565b5b505050806000808881526020019081526020016000206004600581106102a8576102a7610983565b5b50505060004290508060066000898152602001908152602001600020819055503373ffffffffffffffffffffffffffffffffffffffff167f7652df7b6a806a5623766d4eda3f8056ae1cfce0787e7987b28507bb9802515d60405161030c90610a0f565b60405180910390a250505050505050565b61032686610196565b15610366576040517f08c379a000000000000000000000000000000000000000000000000000000000815260040161035d90610a7b565b60405180910390fd5b84600160006005811061037c5761037b610983565b5b0181905550836001806005811061039657610395610983565b5b01819055508260016002600581106103b1576103b0610983565b5b01819055508160016003600581106103cc576103cb610983565b5b01819055508060016004600581106103e7576103e6610983565b5b0181905550600160008088815260200190815260200160002090600561040e9291906106b6565b503373ffffffffffffffffffffffffffffffffffffffff167f7652df7b6a806a5623766d4eda3f8056ae1cfce0787e7987b28507bb9802515d60405161045390610ae7565b60405180910390a2505050505050565b60008560008089815260200190815260200160002060006005811061048b5761048a610983565b5b01541480156104bf5750846000808981526020019081526020016000206001600581106104bb576104ba610983565b5b0154145b80156104f05750836000808981526020019081526020016000206002600581106104ec576104eb610983565b5b0154145b801561052157508260008089815260200190815260200160002060036005811061051d5761051c610983565b5b0154145b801561055257508160008089815260200190815260200160002060046005811061054e5761054d610983565b5b0154145b156105605760019050610565565b600090505b9695505050505050565b6000151561057c82610196565b151514156105bf576040517f08c379a00000000000000000000000000000000000000000000000000000000081526004016105b690610b53565b60405180910390fd5b6000801b6000808381526020019081526020016000206000600581106105e8576105e7610983565b5b01819055503373ffffffffffffffffffffffffffffffffffffffff167f7652df7b6a806a5623766d4eda3f8056ae1cfce0787e7987b28507bb9802515d60405161063190610bbf565b60405180910390a250565b600060066000838152602001908152602001600020549050919050565b6106616106f3565b6000808381526020019081526020016000206005806020026040519081016040528092919082600580156106aa576020028201915b815481526020019060010190808311610696575b50505050509050919050565b82600581019282156106e2579182015b828111156106e15782548255916001019190600101906106c6565b5b5090506106ef9190610715565b5090565b6040518060a00160405280600590602082028036833780820191505090505090565b5b8082111561072e576000816000905550600101610716565b5090565b600080fd5b6000819050919050565b61074a81610737565b811461075557600080fd5b50565b60008135905061076781610741565b92915050565b60006020828403121561078357610782610732565b5b600061079184828501610758565b91505092915050565b60008115159050919050565b6107af8161079a565b82525050565b60006020820190506107ca60008301846107a6565b92915050565b6000819050919050565b6107e3816107d0565b81146107ee57600080fd5b50565b600081359050610800816107da565b92915050565b60008060008060008060c0878903121561082357610822610732565b5b600061083189828a01610758565b965050602061084289828a016107f1565b955050604061085389828a016107f1565b945050606061086489828a016107f1565b935050608061087589828a016107f1565b92505060a061088689828a016107f1565b9150509295509295509295565b61089c81610737565b82525050565b60006020820190506108b76000830184610893565b92915050565b600060059050919050565b600081905092915050565b6000819050919050565b6108e6816107d0565b82525050565b60006108f883836108dd565b60208301905092915050565b6000602082019050919050565b61091a816108bd565b61092481846108c8565b925061092f826108d3565b8060005b8381101561096057815161094787826108ec565b965061095283610904565b925050600181019050610933565b505050505050565b600060a08201905061097d6000830184610911565b92915050565b7f4e487b7100000000000000000000000000000000000000000000000000000000600052603260045260246000fd5b600082825260208201905092915050565b7f5570646174654365727469666963617465000000000000000000000000000000600082015250565b60006109f96011836109b2565b9150610a04826109c3565b602082019050919050565b60006020820190508181036000830152610a28816109ec565b9050919050565b7f436572746966696361746520616c726561647920657869737473000000000000600082015250565b6000610a65601a836109b2565b9150610a7082610a2f565b602082019050919050565b60006020820190508181036000830152610a9481610a58565b9050919050565b7f4164644365727469666963617465000000000000000000000000000000000000600082015250565b6000610ad1600e836109b2565b9150610adc82610a9b565b602082019050919050565b60006020820190508181036000830152610b0081610ac4565b9050919050565b7f436572746966696361746520646f6573206e6f74206578697374000000000000600082015250565b6000610b3d601a836109b2565b9150610b4882610b07565b602082019050919050565b60006020820190508181036000830152610b6c81610b30565b9050919050565b7f44656c6574654365727469666963617465000000000000000000000000000000600082015250565b6000610ba96011836109b2565b9150610bb482610b73565b602082019050919050565b60006020820190508181036000830152610bd881610b9c565b905091905056fea26469706673582212202cc42cd59dda56c07243d953db168867931a31044aaae97dbed64cf2c5c64eb364736f6c63430008080033",
  "devdoc": {
    "kind": "dev",
    "methods": {},
    "version": 1
  },
  "userdoc": {
    "kind": "user",
    "methods": {},
    "version": 1
  },
  "storageLayout": {
    "storage": [
      {
        "astId": 7,
        "contract": "contracts/authenticate.sol:Certificate_Authentication",
        "label": "mp",
        "offset": 0,
        "slot": "0",
        "type": "t_mapping(t_uint256,t_array(t_bytes32)5_storage)"
      },
      {
        "astId": 11,
        "contract": "contracts/authenticate.sol:Certificate_Authentication",
        "label": "hashArray",
        "offset": 0,
        "slot": "1",
        "type": "t_array(t_bytes32)5_storage"
      },
      {
        "astId": 15,
        "contract": "contracts/authenticate.sol:Certificate_Authentication",
        "label": "lastUpdate",
        "offset": 0,
        "slot": "6",
        "type": "t_mapping(t_uint256,t_uint256)"
      }
    ],
    "types": {
      "t_array(t_bytes32)5_storage": {
        "base": "t_bytes32",
        "encoding": "inplace",
        "label": "bytes32[5]",
        "numberOfBytes": "160"
      },
      "t_bytes32": {
        "encoding": "inplace",
        "label": "bytes32",
        "numberOfBytes": "32"
      },
      "t_mapping(t_uint256,t_array(t_bytes32)5_storage)": {
        "encoding": "mapping",
        "key": "t_uint256",
        "label": "mapping(uint256 => bytes32[5])",
        "numberOfBytes": "32",
        "value": "t_array(t_bytes32)5_storage"
      },
      "t_mapping(t_uint256,t_uint256)": {
        "encoding": "mapping",
        "key": "t_uint256",
        "label": "mapping(uint256 => uint256)",
        "numberOfBytes": "32",
        "value": "t_uint256"
      },
      "t_uint256": {
        "encoding": "inplace",
        "label": "uint256",
        "numberOfBytes": "32"
      }
    }
  }
}