{
  "address": "0x5FbDB2315678afecb367f032d93F642f64180aa3",
  "abi": [
    {
      "anonymous": false,
      "inputs": [
        {
          "indexed": true,
          "internalType": "address",
          "name": "from",
          "type": "address"
        },
        {
          "indexed": false,
          "internalType": "string",
          "name": "method",
          "type": "string"
        }
      ],
      "name": "transact",
      "type": "event"
    },
    {
      "inputs": [
        {
          "internalType": "uint256",
          "name": "_certNo",
          "type": "uint256"
        },
        {
          "internalType": "bytes32",
          "name": "_name",
          "type": "bytes32"
        },
        {
          "internalType": "bytes32",
          "name": "_fatherNm",
          "type": "bytes32"
        },
        {
          "internalType": "bytes32",
          "name": "_rollNo",
          "type": "bytes32"
        },
        {
          "internalType": "bytes32",
          "name": "_schoolCode",
          "type": "bytes32"
        },
        {
          "internalType": "bytes32",
          "name": "_percentage",
          "type": "bytes32"
        }
      ],
      "name": "AddCertificate",
      "outputs": [],
      "stateMutability": "nonpayable",
      "type": "function"
    },
    {
      "inputs": [
        {
          "internalType": "uint256",
          "name": "_certNo",
          "type": "uint256"
        }
      ],
      "name": "DeleteCertificate",
      "outputs": [],
      "stateMutability": "nonpayable",
      "type": "function"
    },
    {
      "inputs": [
        {
          "internalType": "uint256",
          "name": "_certNo",
          "type": "uint256"
        },
        {
          "internalType": "bytes32",
          "name": "_name",
          "type": "bytes32"
        },
        {
          "internalType": "bytes32",
          "name": "_fatherNm",
          "type": "bytes32"
        },
        {
          "internalType": "bytes32",
          "name": "_rollNo",
          "type": "bytes32"
        },
        {
          "internalType": "bytes32",
          "name": "_schoolCode",
          "type": "bytes32"
        },
        {
          "internalType": "bytes32",
          "name": "_percentage",
          "type": "bytes32"
        }
      ],
      "name": "UpdateCertificate",
      "outputs": [],
      "stateMutability": "nonpayable",
      "type": "function"
    },
    {
      "inputs": [
        {
          "internalType": "uint256",
          "name": "_certNo",
          "type": "uint256"
        }
      ],
      "name": "get_details",
      "outputs": [
        {
          "internalType": "bytes32[5]",
          "name": "",
          "type": "bytes32[5]"
        }
      ],
      "stateMutability": "view",
      "type": "function"
    },
    {
      "inputs": [
        {
          "internalType": "uint256",
          "name": "_certNo",
          "type": "uint256"
        }
      ],
      "name": "get_timestamp",
      "outputs": [
        {
          "internalType": "uint256",
          "name": "",
          "type": "uint256"
        }
      ],
      "stateMutability": "view",
      "type": "function"
    },
    {
      "inputs": [
        {
          "internalType": "uint256",
          "name": "_certNo",
          "type": "uint256"
        }
      ],
      "name": "isCertificateExist",
      "outputs": [
        {
          "internalType": "bool",
          "name": "",
          "type": "bool"
        }
      ],
      "stateMutability": "view",
      "type": "function"
    },
    {
      "inputs": [
        {
          "internalType": "uint256",
          "name": "_certNo",
          "type": "uint256"
        },
        {
          "internalType": "bytes32",
          "name": "_name",
          "type": "bytes32"
        },
        {
          "internalType": "bytes32",
          "name": "_fatherNm",
          "type": "bytes32"
        },
        {
          "internalType": "bytes32",
          "name": "_rollNo",
          "type": "bytes32"
        },
        {
          "internalType": "bytes32",
          "name": "_schoolCode",
          "type": "bytes32"
        },
        {
          "internalType": "bytes32",
          "name": "_percentage",
          "type": "bytes32"
        }
      ],
      "name": "verify",
      "outputs": [
        {
          "internalType": "bool",
          "name": "",
          "type": "bool"
        }
      ],
      "stateMutability": "view",
      "type": "function"
    }
  ],
  "transactionHash": "0xcbb91d05af1447a99f43403b7e7e6df6691b07fa0b9ed0753d9e8fce47fded28",
  "args": [],
  "numDeployments": 1,
  "solcInputHash": "ac47551f47e2714f6e3116cd348dbae3",
  "bytecode": "0x608060405234801561001057600080fd5b50610c65806100206000396000f3fe608060405234801561001057600080fd5b506004361061007d5760003560e01c80633eeda2431161005b5780633eeda243146100ea578063abc09d801461011a578063c931f6b014610136578063ed82f83b146101665761007d565b80630d3be2241461008257806311ad735a146100b257806328db1910146100ce575b600080fd5b61009c600480360381019061009791906107bd565b610196565b6040516100a99190610805565b60405180910390f35b6100cc60048036038101906100c79190610856565b6101dc565b005b6100e860048036038101906100e39190610856565b61036d565b005b61010460048036038101906100ff9190610856565b6104b3565b6040516101119190610805565b60405180910390f35b610134600480360381019061012f91906107bd565b6105bf565b005b610150600480360381019061014b91906107bd565b61068c565b60405161015d91906108f2565b60405180910390f35b610180600480360381019061017b91906107bd565b6106a9565b60405161018d91906109b8565b60405180910390f35b60008060001b6000808481526020019081526020016000206000600581106101c1576101c06109d3565b5b015414156101d257600090506101d7565b600190505b919050565b600015156101e987610196565b1515141561022c576040517f08c379a000000000000000000000000000000000000000000000000000000000815260040161022390610a5f565b60405180910390fd5b84600080888152602001908152602001600020600060058110610252576102516109d3565b5b01819055508360008088815260200190815260200160002060016005811061027d5761027c6109d3565b5b505050826000808881526020019081526020016000206002600581106102a6576102a56109d3565b5b505050816000808881526020019081526020016000206003600581106102cf576102ce6109d3565b5b505050806000808881526020019081526020016000206004600581106102f8576102f76109d3565b5b50505060004290508060066000898152602001908152602001600020819055503373ffffffffffffffffffffffffffffffffffffffff167f7652df7b6a806a5623766d4eda3f8056ae1cfce0787e7987b28507bb9802515d60405161035c90610acb565b60405180910390a250505050505050565b61037686610196565b156103b6576040517f08c379a00000000000000000000000000000000000000000000000000000000081526004016103ad90610b37565b60405180910390fd5b8460016000600581106103cc576103cb6109d3565b5b018190555083600180600581106103e6576103e56109d3565b5b0181905550826001600260058110610401576104006109d3565b5b018190555081600160036005811061041c5761041b6109d3565b5b0181905550806001600460058110610437576104366109d3565b5b0181905550600160008088815260200190815260200160002090600561045e929190610706565b503373ffffffffffffffffffffffffffffffffffffffff167f7652df7b6a806a5623766d4eda3f8056ae1cfce0787e7987b28507bb9802515d6040516104a390610ba3565b60405180910390a2505050505050565b6000856000808981526020019081526020016000206000600581106104db576104da6109d3565b5b015414801561050f57508460008089815260200190815260200160002060016005811061050b5761050a6109d3565b5b0154145b801561054057508360008089815260200190815260200160002060026005811061053c5761053b6109d3565b5b0154145b801561057157508260008089815260200190815260200160002060036005811061056d5761056c6109d3565b5b0154145b80156105a257508160008089815260200190815260200160002060046005811061059e5761059d6109d3565b5b0154145b156105b057600190506105b5565b600090505b9695505050505050565b600015156105cc82610196565b1515141561060f576040517f08c379a000000000000000000000000000000000000000000000000000000000815260040161060690610a5f565b60405180910390fd5b6000801b600080838152602001908152602001600020600060058110610638576106376109d3565b5b01819055503373ffffffffffffffffffffffffffffffffffffffff167f7652df7b6a806a5623766d4eda3f8056ae1cfce0787e7987b28507bb9802515d60405161068190610c0f565b60405180910390a250565b600060066000838152602001908152602001600020549050919050565b6106b1610743565b6000808381526020019081526020016000206005806020026040519081016040528092919082600580156106fa576020028201915b8154815260200190600101908083116106e6575b50505050509050919050565b8260058101928215610732579182015b82811115610731578254825591600101919060010190610716565b5b50905061073f9190610765565b5090565b6040518060a00160405280600590602082028036833780820191505090505090565b5b8082111561077e576000816000905550600101610766565b5090565b600080fd5b6000819050919050565b61079a81610787565b81146107a557600080fd5b50565b6000813590506107b781610791565b92915050565b6000602082840312156107d3576107d2610782565b5b60006107e1848285016107a8565b91505092915050565b60008115159050919050565b6107ff816107ea565b82525050565b600060208201905061081a60008301846107f6565b92915050565b6000819050919050565b61083381610820565b811461083e57600080fd5b50565b6000813590506108508161082a565b92915050565b60008060008060008060c0878903121561087357610872610782565b5b600061088189828a016107a8565b965050602061089289828a01610841565b95505060406108a389828a01610841565b94505060606108b489828a01610841565b93505060806108c589828a01610841565b92505060a06108d689828a01610841565b9150509295509295509295565b6108ec81610787565b82525050565b600060208201905061090760008301846108e3565b92915050565b600060059050919050565b600081905092915050565b6000819050919050565b61093681610820565b82525050565b6000610948838361092d565b60208301905092915050565b6000602082019050919050565b61096a8161090d565b6109748184610918565b925061097f82610923565b8060005b838110156109b0578151610997878261093c565b96506109a283610954565b925050600181019050610983565b505050505050565b600060a0820190506109cd6000830184610961565b92915050565b7f4e487b7100000000000000000000000000000000000000000000000000000000600052603260045260246000fd5b600082825260208201905092915050565b7f436572746966696361746520646f6573206e6f74206578697374000000000000600082015250565b6000610a49601a83610a02565b9150610a5482610a13565b602082019050919050565b60006020820190508181036000830152610a7881610a3c565b9050919050565b7f5570646174654365727469666963617465000000000000000000000000000000600082015250565b6000610ab5601183610a02565b9150610ac082610a7f565b602082019050919050565b60006020820190508181036000830152610ae481610aa8565b9050919050565b7f436572746966696361746520616c726561647920657869737473000000000000600082015250565b6000610b21601a83610a02565b9150610b2c82610aeb565b602082019050919050565b60006020820190508181036000830152610b5081610b14565b9050919050565b7f4164644365727469666963617465000000000000000000000000000000000000600082015250565b6000610b8d600e83610a02565b9150610b9882610b57565b602082019050919050565b60006020820190508181036000830152610bbc81610b80565b9050919050565b7f44656c6574654365727469666963617465000000000000000000000000000000600082015250565b6000610bf9601183610a02565b9150610c0482610bc3565b602082019050919050565b60006020820190508181036000830152610c2881610bec565b905091905056fea26469706673582212202258b3b40adc2c013756e4ad7ef9254e983edd2039b477586a4fbb67af67da9d64736f6c63430008080033",
  "devdoc": {
    "kind": "dev",
    "methods": {},
    "version": 1
  },
  "userdoc": {
    "kind": "user",
    "methods": {},
    "version": 1
  },
  "storageLayout": {
    "storage": [
      {
        "astId": 7,
        "contract": "contracts/authenticate.sol:Certificate_Authentication",
        "label": "mp",
        "offset": 0,
        "slot": "0",
        "type": "t_mapping(t_uint256,t_array(t_bytes32)5_storage)"
      },
      {
        "astId": 11,
        "contract": "contracts/authenticate.sol:Certificate_Authentication",
        "label": "hashArray",
        "offset": 0,
        "slot": "1",
        "type": "t_array(t_bytes32)5_storage"
      },
      {
        "astId": 15,
        "contract": "contracts/authenticate.sol:Certificate_Authentication",
        "label": "lastUpdate",
        "offset": 0,
        "slot": "6",
        "type": "t_mapping(t_uint256,t_uint256)"
      }
    ],
    "types": {
      "t_array(t_bytes32)5_storage": {
        "base": "t_bytes32",
        "encoding": "inplace",
        "label": "bytes32[5]",
        "numberOfBytes": "160"
      },
      "t_bytes32": {
        "encoding": "inplace",
        "label": "bytes32",
        "numberOfBytes": "32"
      },
      "t_mapping(t_uint256,t_array(t_bytes32)5_storage)": {
        "encoding": "mapping",
        "key": "t_uint256",
        "label": "mapping(uint256 => bytes32[5])",
        "numberOfBytes": "32",
        "value": "t_array(t_bytes32)5_storage"
      },
      "t_mapping(t_uint256,t_uint256)": {
        "encoding": "mapping",
        "key": "t_uint256",
        "label": "mapping(uint256 => uint256)",
        "numberOfBytes": "32",
        "value": "t_uint256"
      },
      "t_uint256": {
        "encoding": "inplace",
        "label": "uint256",
        "numberOfBytes": "32"
      }
    }
  }
}